{
  "contractName": "Challenge",
  "abi": [
    {
      "inputs": [
        {
          "internalType": "address payable",
          "name": "p1",
          "type": "address"
        },
        {
          "internalType": "address payable",
          "name": "p2",
          "type": "address"
        },
        {
          "internalType": "bool",
          "name": "_p1IsWhite",
          "type": "bool"
        },
        {
          "internalType": "uint256",
          "name": "_wagerAmount",
          "type": "uint256"
        },
        {
          "internalType": "uint256",
          "name": "_timePerMove",
          "type": "uint256"
        }
      ],
      "stateMutability": "payable",
      "type": "constructor"
    },
    {
      "anonymous": false,
      "inputs": [
        {
          "indexed": true,
          "internalType": "address",
          "name": "player",
          "type": "address"
        }
      ],
      "name": "ChallengeModified",
      "type": "event"
    },
    {
      "inputs": [],
      "name": "game",
      "outputs": [
        {
          "internalType": "address",
          "name": "",
          "type": "address"
        }
      ],
      "stateMutability": "view",
      "type": "function"
    },
    {
      "inputs": [],
      "name": "lobby",
      "outputs": [
        {
          "internalType": "address",
          "name": "",
          "type": "address"
        }
      ],
      "stateMutability": "view",
      "type": "function"
    },
    {
      "inputs": [],
      "name": "p1Balance",
      "outputs": [
        {
          "internalType": "uint256",
          "name": "",
          "type": "uint256"
        }
      ],
      "stateMutability": "view",
      "type": "function"
    },
    {
      "inputs": [],
      "name": "p1IsWhite",
      "outputs": [
        {
          "internalType": "bool",
          "name": "",
          "type": "bool"
        }
      ],
      "stateMutability": "view",
      "type": "function"
    },
    {
      "inputs": [],
      "name": "p2Balance",
      "outputs": [
        {
          "internalType": "uint256",
          "name": "",
          "type": "uint256"
        }
      ],
      "stateMutability": "view",
      "type": "function"
    },
    {
      "inputs": [],
      "name": "player1",
      "outputs": [
        {
          "internalType": "address payable",
          "name": "",
          "type": "address"
        }
      ],
      "stateMutability": "view",
      "type": "function"
    },
    {
      "inputs": [],
      "name": "player2",
      "outputs": [
        {
          "internalType": "address payable",
          "name": "",
          "type": "address"
        }
      ],
      "stateMutability": "view",
      "type": "function"
    },
    {
      "inputs": [],
      "name": "receiver",
      "outputs": [
        {
          "internalType": "address",
          "name": "",
          "type": "address"
        }
      ],
      "stateMutability": "view",
      "type": "function"
    },
    {
      "inputs": [],
      "name": "sender",
      "outputs": [
        {
          "internalType": "address",
          "name": "",
          "type": "address"
        }
      ],
      "stateMutability": "view",
      "type": "function"
    },
    {
      "inputs": [],
      "name": "state",
      "outputs": [
        {
          "internalType": "enum Challenge.State",
          "name": "",
          "type": "uint8"
        }
      ],
      "stateMutability": "view",
      "type": "function"
    },
    {
      "inputs": [],
      "name": "timePerMove",
      "outputs": [
        {
          "internalType": "uint256",
          "name": "",
          "type": "uint256"
        }
      ],
      "stateMutability": "view",
      "type": "function"
    },
    {
      "inputs": [],
      "name": "wagerAmount",
      "outputs": [
        {
          "internalType": "uint256",
          "name": "",
          "type": "uint256"
        }
      ],
      "stateMutability": "view",
      "type": "function"
    },
    {
      "inputs": [],
      "name": "whitePlayer",
      "outputs": [
        {
          "internalType": "address payable",
          "name": "",
          "type": "address"
        }
      ],
      "stateMutability": "view",
      "type": "function"
    },
    {
      "inputs": [],
      "name": "blackPlayer",
      "outputs": [
        {
          "internalType": "address payable",
          "name": "",
          "type": "address"
        }
      ],
      "stateMutability": "view",
      "type": "function"
    },
    {
      "inputs": [
        {
          "internalType": "bool",
          "name": "_p1IsWhite",
          "type": "bool"
        },
        {
          "internalType": "uint256",
          "name": "_wagerAmount",
          "type": "uint256"
        },
        {
          "internalType": "uint256",
          "name": "_timePerMove",
          "type": "uint256"
        }
      ],
      "name": "modify",
      "outputs": [],
      "stateMutability": "payable",
      "type": "function"
    },
    {
      "inputs": [],
      "name": "cancel",
      "outputs": [],
      "stateMutability": "nonpayable",
      "type": "function"
    },
    {
      "inputs": [],
      "name": "decline",
      "outputs": [],
      "stateMutability": "nonpayable",
      "type": "function"
    },
    {
      "inputs": [],
      "name": "accept",
      "outputs": [],
      "stateMutability": "payable",
      "type": "function"
    },
    {
      "inputs": [
        {
          "internalType": "enum ChessGame.GameOutcome",
          "name": "_outcome",
          "type": "uint8"
        },
        {
          "internalType": "address",
          "name": "_winner",
          "type": "address"
        }
      ],
      "name": "disburse",
      "outputs": [],
      "stateMutability": "nonpayable",
      "type": "function"
    }
  ],
  "bytecode": "0x60e0604052604051620037753803806200377583398101604081905262000026916200010d565b8134146200007a5760405162461bcd60e51b815260206004820152601460248201527f496e76616c69644465706f736974416d6f756e74000000000000000000000000604482015260640160405180910390fd5b336080526001600160a01b0394851660a08190529390941660c081905260008054931515600160a01b0260ff60a01b199094169390931790925560019390935560029290925534600355600580546001600160a01b0319169091179055600680546001600160a81b031916909117905562000170565b80516001600160a01b03811681146200010857600080fd5b919050565b600080600080600060a086880312156200012657600080fd5b6200013186620000f0565b94506200014160208701620000f0565b9350604086015180151581146200015757600080fd5b6060870151608090970151959894975095949392505050565b60805160a05160c051613493620002e26000396000818161021e0152818161045c01528181610514015281816105cb015281816106070152818161063c015281816108a2015281816109ba015281816109f601528181610a2b01528181610ecd01528181610f3b01528181611086015281816110c2015281816110f70152818161131f0152818161135b015281816113900152818161144a015281816114b001528181611598015261165e01526000818161034601528181610429015281816104c30152818161055f0152818161059401528181610673015281816108510152818161094e0152818161098301528181610a6201528181610e7401528181610f600152818161101a0152818161104f0152818161112e015281816112b3015281816112e8015281816113c701528181611425015281816114780152818161153201526115fe0152600081816101cf0152818161073b01528181610abd01528181610bec015261118b01526134936000f3fe6080604052600436106200012b5760003560e01c806390e0f1d911620000ad578063d30895e4116200006c578063d30895e41462000332578063e73bb2021462000368578063ea8a1af01462000380578063f7260d3e1462000398578063fc16874714620003ba57600080fd5b806390e0f1d9146200027a578063ab04010714620002ae578063c19d93fb14620002c6578063c31237ce14620002f8578063c3fe3e28146200031057600080fd5b806349de470411620000fa57806349de470414620001a357806354faf46b14620001bb57806359a5f12d146200020a57806367e404ce14620002405780638bf0beee146200026257600080fd5b806306d94ab214620001305780630a76f243146200015b5780632852b71c14620001745780634058ef05146200017e575b600080fd5b3480156200013d57600080fd5b506200014860045481565b6040519081526020015b60405180910390f35b620001726200016c366004620016d3565b620003d2565b005b62000172620007b9565b3480156200018b57600080fd5b50620001726200019d3660046200170f565b62000c59565b348015620001b057600080fd5b506200014860025481565b348015620001c857600080fd5b50620001f17f000000000000000000000000000000000000000000000000000000000000000081565b6040516001600160a01b03909116815260200162000152565b3480156200021757600080fd5b50620001f17f000000000000000000000000000000000000000000000000000000000000000081565b3480156200024d57600080fd5b50600554620001f1906001600160a01b031681565b3480156200026f57600080fd5b50620001f162000f25565b3480156200028757600080fd5b506000546200029d90600160a01b900460ff1681565b604051901515815260200162000152565b348015620002bb57600080fd5b506200017262000f82565b348015620002d357600080fd5b50600654620002e990600160a01b900460ff1681565b60405162000152919062001794565b3480156200030557600080fd5b506200014860015481565b3480156200031d57600080fd5b50600054620001f1906001600160a01b031681565b3480156200033f57600080fd5b50620001f17f000000000000000000000000000000000000000000000000000000000000000081565b3480156200037557600080fd5b506200014860035481565b3480156200038d57600080fd5b50620001726200121d565b348015620003a557600080fd5b50600654620001f1906001600160a01b031681565b348015620003c757600080fd5b50620001f16200140f565b6000600654600160a01b900460ff166003811115620003f557620003f56200175b565b146200041e5760405162461bcd60e51b81526004016200041590620017a4565b60405180910390fd5b336001600160a01b037f00000000000000000000000000000000000000000000000000000000000000001614806200047e5750336001600160a01b037f000000000000000000000000000000000000000000000000000000000000000016145b620004b95760405162461bcd60e51b815260206004820152600a602482015269506c617965724f6e6c7960b01b604482015260640162000415565b6001600160a01b037f00000000000000000000000000000000000000000000000000000000000000001633036200050a573460036000828254620004fe9190620017e8565b90915550620005559050565b6001600160a01b037f0000000000000000000000000000000000000000000000000000000000000000163303620005555734600460008282546200054f9190620017e8565b90915550505b6001600160a01b037f0000000000000000000000000000000000000000000000000000000000000000163303620005fd57600580546001600160a01b037f000000000000000000000000000000000000000000000000000000000000000081166001600160a01b031992831617909255600680547f000000000000000000000000000000000000000000000000000000000000000090931692909116919091179055620006a0565b6001600160a01b037f0000000000000000000000000000000000000000000000000000000000000000163303620006a057600580546001600160a01b037f000000000000000000000000000000000000000000000000000000000000000081166001600160a01b031992831617909255600680547f0000000000000000000000000000000000000000000000000000000000000000909316929091169190911790555b81620006ab6200146c565b1015620006f55760405162461bcd60e51b8152602060048201526017602482015276496e73756666696369656e74506c6179657246756e647360481b604482015260640162000415565b60008054841515600160a01b90810260ff60a01b19909216919091179091556002839055600182905560055460065460405163a566a0af60e01b81526001600160a01b037f000000000000000000000000000000000000000000000000000000000000000081169463a566a0af946200078094908316939281169291900460ff169060040162001803565b600060405180830381600087803b1580156200079b57600080fd5b505af1158015620007b0573d6000803e3d6000fd5b50505050505050565b6000600654600160a01b900460ff166003811115620007dc57620007dc6200175b565b14620007fc5760405162461bcd60e51b81526004016200041590620017a4565b6006546001600160a01b03163314620008475760405162461bcd60e51b815260206004820152600c60248201526b52656365697665724f6e6c7960a01b604482015260640162000415565b6001600160a01b037f0000000000000000000000000000000000000000000000000000000000000000163303620008985734600360008282546200088c9190620017e8565b90915550620008e39050565b6001600160a01b037f0000000000000000000000000000000000000000000000000000000000000000163303620008e3573460046000828254620008dd9190620017e8565b90915550505b60025460035410158015620008fc575060025460045410155b620009445760405162461bcd60e51b8152602060048201526017602482015276496e73756666696369656e74506c6179657246756e647360481b604482015260640162000415565b6001600160a01b037f0000000000000000000000000000000000000000000000000000000000000000163303620009ec57600580546001600160a01b037f000000000000000000000000000000000000000000000000000000000000000081166001600160a01b031992831617909255600680547f00000000000000000000000000000000000000000000000000000000000000009093169290911691909117905562000a8f565b6001600160a01b037f000000000000000000000000000000000000000000000000000000000000000016330362000a8f57600580546001600160a01b037f000000000000000000000000000000000000000000000000000000000000000081166001600160a01b031992831617909255600680547f0000000000000000000000000000000000000000000000000000000000000000909316929091169190911790555b60068054600160a01b60ff60a01b19821681179283905560405163a566a0af60e01b81526001600160a01b037f000000000000000000000000000000000000000000000000000000000000000081169463a566a0af9462000b02943394939091169260ff91909204169060040162001803565b600060405180830381600087803b15801562000b1d57600080fd5b505af115801562000b32573d6000803e3d6000fd5b50505050600062000b4262000f25565b9050600062000b506200140f565b90506000828260015460405162000b6790620016c5565b6001600160a01b0393841681529290911660208301526040820152606001604051809103906000f08015801562000ba2573d6000803e3d6000fd5b50600080546001600160a01b0319166001600160a01b0383811691821790925560405163f8370f0f60e01b81526004810191909152858216602482015284821660448201529192507f0000000000000000000000000000000000000000000000000000000000000000169063f8370f0f90606401600060405180830381600087803b15801562000c3157600080fd5b505af115801562000c46573d6000803e3d6000fd5b5050505062000c54620014e4565b505050565b6001600654600160a01b900460ff16600381111562000c7c5762000c7c6200175b565b1462000c9c5760405162461bcd60e51b81526004016200041590620017a4565b6000546001600160a01b0316331462000ce35760405162461bcd60e51b815260206004820152600860248201526747616d654f6e6c7960c01b604482015260640162000415565b600182600381111562000cfa5762000cfa6200175b565b0362000dbc5762000d0a62000f25565b6001600160a01b0316816001600160a01b03161462000d645760405162461bcd60e51b8152602060048201526015602482015274496e76616c696457696e6e696e674164647265737360581b604482015260640162000415565b62000d6e62000f25565b6001600160a01b03166108fc60045460035462000d8c9190620017e8565b6040518115909202916000818181858888f1935050505015801562000db5573d6000803e3d6000fd5b5062000f17565b600282600381111562000dd35762000dd36200175b565b0362000e475762000de36200140f565b6001600160a01b0316816001600160a01b03161462000e3d5760405162461bcd60e51b8152602060048201526015602482015274496e76616c696457696e6e696e674164647265737360581b604482015260640162000415565b62000d6e6200140f565b600382600381111562000e5e5762000e5e6200175b565b0362000f17576003546040516001600160a01b037f0000000000000000000000000000000000000000000000000000000000000000169180156108fc02916000818181858888f1935050505015801562000ebc573d6000803e3d6000fd5b506004546040516001600160a01b037f0000000000000000000000000000000000000000000000000000000000000000169180156108fc02916000818181858888f1935050505015801562000f15573d6000803e3d6000fd5b505b505060006003819055600455565b60008054600160a01b900460ff1662000f5d57507f000000000000000000000000000000000000000000000000000000000000000090565b507f000000000000000000000000000000000000000000000000000000000000000090565b6000600654600160a01b900460ff16600381111562000fa55762000fa56200175b565b1462000fc55760405162461bcd60e51b81526004016200041590620017a4565b6006546001600160a01b03163314620010105760405162461bcd60e51b815260206004820152600c60248201526b52656365697665724f6e6c7960a01b604482015260640162000415565b6001600160a01b037f0000000000000000000000000000000000000000000000000000000000000000163303620010b857600580546001600160a01b037f000000000000000000000000000000000000000000000000000000000000000081166001600160a01b031992831617909255600680547f0000000000000000000000000000000000000000000000000000000000000000909316929091169190911790556200115b565b6001600160a01b037f00000000000000000000000000000000000000000000000000000000000000001633036200115b57600580546001600160a01b037f000000000000000000000000000000000000000000000000000000000000000081166001600160a01b031992831617909255600680547f0000000000000000000000000000000000000000000000000000000000000000909316929091169190911790555b600680546002919060ff60a01b1916600160a01b835b021790555060055460065460405163a566a0af60e01b81527f00000000000000000000000000000000000000000000000000000000000000006001600160a01b039081169363a566a0af93620011dd9391831692811691600160a01b90910460ff169060040162001803565b600060405180830381600087803b158015620011f857600080fd5b505af11580156200120d573d6000803e3d6000fd5b505050506200121b620015ee565b565b6000600654600160a01b900460ff1660038111156200124057620012406200175b565b14620012605760405162461bcd60e51b81526004016200041590620017a4565b6005546001600160a01b03163314620012a95760405162461bcd60e51b815260206004820152600a60248201526953656e6465724f6e6c7960b01b604482015260640162000415565b6001600160a01b037f00000000000000000000000000000000000000000000000000000000000000001633036200135157600580546001600160a01b037f000000000000000000000000000000000000000000000000000000000000000081166001600160a01b031992831617909255600680547f000000000000000000000000000000000000000000000000000000000000000090931692909116919091179055620013f4565b6001600160a01b037f0000000000000000000000000000000000000000000000000000000000000000163303620013f457600580546001600160a01b037f000000000000000000000000000000000000000000000000000000000000000081166001600160a01b031992831617909255600680547f0000000000000000000000000000000000000000000000000000000000000000909316929091169190911790555b600680546003919060ff60a01b1916600160a01b8362001171565b60008054600160a01b900460ff166200144757507f000000000000000000000000000000000000000000000000000000000000000090565b507f000000000000000000000000000000000000000000000000000000000000000090565b60006001600160a01b037f0000000000000000000000000000000000000000000000000000000000000000163303620014a6575060035490565b6001600160a01b037f0000000000000000000000000000000000000000000000000000000000000000163303620014de575060045490565b50600090565b6000620014ff600254600354620016ae90919063ffffffff16565b905060006200151c600254600454620016ae90919063ffffffff16565b9050811562001584576040516001600160a01b037f0000000000000000000000000000000000000000000000000000000000000000169083156108fc029084906000818181858888f193505050501580156200157c573d6000803e3d6000fd5b506002546003555b8015620015ea576040516001600160a01b037f0000000000000000000000000000000000000000000000000000000000000000169082156108fc029083906000818181858888f19350505050158015620015e2573d6000803e3d6000fd5b506002546004555b5050565b6003546040516001600160a01b037f0000000000000000000000000000000000000000000000000000000000000000169180156108fc02916000818181858888f1935050505015801562001646573d6000803e3d6000fd5b50600060038190556004546040516001600160a01b037f0000000000000000000000000000000000000000000000000000000000000000169282156108fc02929190818181858888f19350505050158015620016a6573d6000803e3d6000fd5b506000600455565b6000620016bc828462001832565b90505b92915050565b611c11806200184d83390190565b600080600060608486031215620016e957600080fd5b83358015158114620016fa57600080fd5b95602085013595506040909401359392505050565b600080604083850312156200172357600080fd5b8235600481106200173357600080fd5b915060208301356001600160a01b03811681146200175057600080fd5b809150509250929050565b634e487b7160e01b600052602160045260246000fd5b600481106200179057634e487b7160e01b600052602160045260246000fd5b9052565b60208101620016bf828462001771565b602080825260149082015273496e76616c6964436f6e7472616374537461746560601b604082015260600190565b634e487b7160e01b600052601160045260246000fd5b60008219821115620017fe57620017fe620017d2565b500190565b6001600160a01b03848116825283166020820152606081016200182a604083018462001771565b949350505050565b600082821015620018475762001847620017d2565b50039056fe6101406040526004805464ffffff000019166404020100001790553480156200002757600080fd5b5060405162001c1138038062001c118339810160408190526200004a9162000180565b3360a0819052604080516354faf46b60e01b815290516354faf46b916004808201926020929091908290030181865afa1580156200008c573d6000803e3d6000fd5b505050506040513d601f19601f82011682018060405250810190620000b29190620001c1565b6001600160a01b0316608081905260408051637f12f00560e11b8152905163fe25e00a916004808201926020929091908290030181865afa158015620000fc573d6000803e3d6000fd5b505050506040513d601f19601f82011682018060405250810190620001229190620001c1565b6001600160a01b0390811660c05292831660e052911661010052610120526001805460ff191681179055426000556004805460ff60301b19169055620001e6565b80516001600160a01b03811681146200017b57600080fd5b919050565b6000806000606084860312156200019657600080fd5b620001a18462000163565b9250620001b16020850162000163565b9150604084015190509250925092565b600060208284031215620001d457600080fd5b620001df8262000163565b9392505050565b60805160a05160c05160e05161010051610120516119026200030f6000396000818161023f01526103050152600081816102b801528181610490015281816105d3015281816106c0015281816108db0152818161097a01528181610a5b01528181610ad501528181610cd701528181610efa01528181610fe0015281816112a401526112d00152600081816101f7015281816103ff015281816105a201528181610684015281816108a90152818161094001528181610a1101528181610b0601528181610bb601528181610f4401528181610fae0152818161127b01526112f90152600081816102df015281816103890152610738015260008181610266015261113201526000818161019d01528181610df90152818161105601526111b901526119026000f3fe608060405234801561001057600080fd5b50600436106101215760003560e01c8063a7907797116100ad578063e701ba8311610071578063e701ba8314610290578063e82898b3146102a3578063f240f7c3146102ab578063fc168747146102b3578063fe25e00a146102da57600080fd5b8063a790779714610219578063c19d93fb14610226578063c31237ce1461023a578063d2ef739814610261578063dfbf53ae1461028857600080fd5b80634e71d92d116100f45780634e71d92d1461019057806354faf46b1461019857806366671f7c146101d757806369652fcf146101ea5780638bf0beee146101f257600080fd5b80631c829ded1461012657806327793f87146101435780632ec36e7714610164578063480a2f9814610179575b600080fd5b61012e610301565b60405190151581526020015b60405180910390f35b60045461015790600160281b900460ff1681565b60405161013a9190611477565b610177610172366004611558565b610338565b005b61018260005481565b60405190815260200161013a565b610177610550565b6101bf7f000000000000000000000000000000000000000000000000000000000000000081565b6040516001600160a01b03909116815260200161013a565b6101776101e53660046115b6565b6106f0565b610177610861565b6101bf7f000000000000000000000000000000000000000000000000000000000000000081565b60015461012e9060ff1681565b60045461015790600160301b900460ff1681565b6101827f000000000000000000000000000000000000000000000000000000000000000081565b6101bf7f000000000000000000000000000000000000000000000000000000000000000081565b6101bf6109aa565b61017761029e3660046115e9565b610a83565b6101bf610e93565b610177610f66565b6101bf7f000000000000000000000000000000000000000000000000000000000000000081565b6101bf7f000000000000000000000000000000000000000000000000000000000000000081565b60007f0000000000000000000000000000000000000000000000000000000000000000600054610331919061165e565b4211905090565b6003600454600160301b900460ff16600381111561035857610358611440565b1461037e5760405162461bcd60e51b815260040161037590611676565b60405180910390fd5b336001600160a01b037f000000000000000000000000000000000000000000000000000000000000000016146103e45760405162461bcd60e51b815260206004820152600b60248201526a417262697465724f6e6c7960a81b6044820152606401610375565b60018360038111156103f8576103f8611440565b03610475577f00000000000000000000000000000000000000000000000000000000000000006001600160a01b0316826001600160a01b0316146104705760405162461bcd60e51b815260206004820152600f60248201526e082c8c8e4cae6e69ad2e6dac2e8c6d608b1b6044820152606401610375565b610501565b600283600381111561048957610489611440565b03610501577f00000000000000000000000000000000000000000000000000000000000000006001600160a01b0316826001600160a01b0316146105015760405162461bcd60e51b815260206004820152600f60248201526e082c8c8e4cae6e69ad2e6dac2e8c6d608b1b6044820152606401610375565b61050a836110ee565b336001600160a01b03167fc968b9a04fc8bac8aca9e3c6ef2cc70ebe7f94ffbfdce2e207b85b155abade1b8260405161054391906116f1565b60405180910390a2505050565b6000600454600160301b900460ff16600381111561057057610570611440565b1461058d5760405162461bcd60e51b815260040161037590611676565b60015460ff166105c857336001600160a01b037f000000000000000000000000000000000000000000000000000000000000000016146105f5565b336001600160a01b037f000000000000000000000000000000000000000000000000000000000000000016145b6106335760405162461bcd60e51b815260206004820152600f60248201526e4f74686572506c617965724f6e6c7960881b6044820152606401610375565b61063b610301565b61067a5760405162461bcd60e51b815260206004820152601060248201526f54696d65725374696c6c41637469766560801b6044820152606401610375565b6001600160a01b037f00000000000000000000000000000000000000000000000000000000000000001633036106b6576106b460016110ee565b565b6001600160a01b037f00000000000000000000000000000000000000000000000000000000000000001633036106b4576106b460026110ee565b6003600454600160301b900460ff16600381111561071057610710611440565b1461072d5760405162461bcd60e51b815260040161037590611676565b336001600160a01b037f000000000000000000000000000000000000000000000000000000000000000016146107935760405162461bcd60e51b815260206004820152600b60248201526a417262697465724f6e6c7960a81b6044820152606401610375565b60018260038111156107a7576107a7611440565b036107dc576107d88282604051806040016040528060098152602001682bb434ba32903bb7b760b91b815250610338565b5050565b60028260038111156107f0576107f0611440565b03610821576107d8828260405180604001604052806009815260200168213630b1b5903bb7b760b91b815250610338565b600382600381111561083557610835611440565b036107d8576107d88282604051806040016040528060048152602001634472617760e01b815250610338565b6000600454600160301b900460ff16600381111561088157610881611440565b1461089e5760405162461bcd60e51b815260040161037590611676565b336001600160a01b037f00000000000000000000000000000000000000000000000000000000000000001614806108fd5750336001600160a01b037f000000000000000000000000000000000000000000000000000000000000000016145b6109365760405162461bcd60e51b815260206004820152600a602482015269506c617965724f6e6c7960b01b6044820152606401610375565b6001600160a01b037f0000000000000000000000000000000000000000000000000000000000000000163303610970576106b460026110ee565b6001600160a01b037f00000000000000000000000000000000000000000000000000000000000000001633036106b4576106b460016110ee565b60006001600454600160301b900460ff1660038111156109cc576109cc611440565b146109e95760405162461bcd60e51b815260040161037590611676565b6001600454600160281b900460ff166003811115610a0957610a09611440565b03610a3357507f000000000000000000000000000000000000000000000000000000000000000090565b6002600454600160281b900460ff166003811115610a5357610a53611440565b03610a7d57507f000000000000000000000000000000000000000000000000000000000000000090565b50600090565b6000600454600160301b900460ff166003811115610aa357610aa3611440565b14610ac05760405162461bcd60e51b815260040161037590611676565b60015460ff16610afb57336001600160a01b037f00000000000000000000000000000000000000000000000000000000000000001614610b28565b336001600160a01b037f000000000000000000000000000000000000000000000000000000000000000016145b610b685760405162461bcd60e51b815260206004820152601160248201527043757272656e74506c617965724f6e6c7960781b6044820152606401610375565b610b70610301565b15610bac5760405162461bcd60e51b815260206004820152600c60248201526b151a5b595c915e1c1a5c995960a21b6044820152606401610375565b6001600160a01b037f0000000000000000000000000000000000000000000000000000000000000000163303610ccd57610c708260028054610bed9061170b565b80601f0160208091040260200160405190810160405280929190818152602001828054610c199061170b565b8015610c665780601f10610c3b57610100808354040283529160200191610c66565b820191906000526020600020905b815481529060010190602001808311610c4957829003601f168201915b5050505050611259565b15610cab5760405162461bcd60e51b815260206004820152600b60248201526a496c6c6567616c4d6f766560a81b6044820152606401610375565b6002610cb78382611790565b506004805460ff191660f883901c179055610d6c565b6001600160a01b037f0000000000000000000000000000000000000000000000000000000000000000163303610d6c57610d0e8260038054610bed9061170b565b15610d495760405162461bcd60e51b815260206004820152600b60248201526a496c6c6567616c4d6f766560a81b6044820152606401610375565b6003610d558382611790565b506004805461ff00191661010060f884901c021790555b6004546001600160f81b0319640100000000820460f890811b83821b16610100909304901b919091161615610da5576107d860036110ee565b6001805460ff19811660ff909116151790554260005560405133907f5c835bd7786b7a4f279a14007e442f06a616bd63347831934dfe138bb2de0ac690610def9085908590611850565b60405180910390a27f00000000000000000000000000000000000000000000000000000000000000006001600160a01b031663e44eaa3833610e2f61126f565b6040516001600160e01b031960e085901b1681526001600160a01b03928316600482015291166024820152604401600060405180830381600087803b158015610e7757600080fd5b505af1158015610e8b573d6000803e3d6000fd5b505050505050565b60006001600454600160301b900460ff166003811115610eb557610eb5611440565b14610ed25760405162461bcd60e51b815260040161037590611676565b6001600454600160281b900460ff166003811115610ef257610ef2611440565b03610f1c57507f000000000000000000000000000000000000000000000000000000000000000090565b6002600454600160281b900460ff166003811115610f3c57610f3c611440565b03610a7d57507f000000000000000000000000000000000000000000000000000000000000000090565b6000600454600160301b900460ff166003811115610f8657610f86611440565b14610fa35760405162461bcd60e51b815260040161037590611676565b336001600160a01b037f00000000000000000000000000000000000000000000000000000000000000001614806110025750336001600160a01b037f000000000000000000000000000000000000000000000000000000000000000016145b61103b5760405162461bcd60e51b815260206004820152600a602482015269506c617965724f6e6c7960b01b6044820152606401610375565b6004805466ff000000000000191666030000000000001790557f00000000000000000000000000000000000000000000000000000000000000006001600160a01b0316637010784e3361108c61126f565b6040516001600160e01b031960e085901b1681526001600160a01b03928316600482015291166024820152604401600060405180830381600087803b1580156110d457600080fd5b505af11580156110e8573d6000803e3d6000fd5b50505050565b6004805482919065ff00000000001916600160281b83600381111561111557611115611440565b02179055506004805466ff0000000000001916600160301b1790557f00000000000000000000000000000000000000000000000000000000000000006001600160a01b0316634058ef05826111686109aa565b6040518363ffffffff1660e01b8152600401611185929190611878565b600060405180830381600087803b15801561119f57600080fd5b505af11580156111b3573d6000803e3d6000fd5b505050507f00000000000000000000000000000000000000000000000000000000000000006001600160a01b03166305cc3e666111ee6109aa565b6111f6610e93565b6040516001600160e01b031960e085901b1681526001600160a01b03928316600482015291166024820152604401600060405180830381600087803b15801561123e57600080fd5b505af1158015611252573d6000803e3d6000fd5b5050505050565b6000611265838361131b565b1590505b92915050565b60006001600160a01b037f00000000000000000000000000000000000000000000000000000000000000001633036112c657507f000000000000000000000000000000000000000000000000000000000000000090565b6001600160a01b037f0000000000000000000000000000000000000000000000000000000000000000163303610a7d57507f000000000000000000000000000000000000000000000000000000000000000090565b815181516000918491849190811115611332575080515b60005b818110156114065782818151811061134f5761134f61189d565b602001015160f81c60f81b6001600160f81b0319168482815181106113765761137661189d565b01602001516001600160f81b031916101561139957600019945050505050611269565b8281815181106113ab576113ab61189d565b602001015160f81c60f81b6001600160f81b0319168482815181106113d2576113d261189d565b01602001516001600160f81b03191611156113f4576001945050505050611269565b806113fe816118b3565b915050611335565b5081518351101561141e576000199350505050611269565b8151835111156114345760019350505050611269565b60009350505050611269565b634e487b7160e01b600052602160045260246000fd5b6004811061147457634e487b7160e01b600052602160045260246000fd5b50565b6020810161148483611456565b91905290565b80356004811061149957600080fd5b919050565b80356001600160a01b038116811461149957600080fd5b634e487b7160e01b600052604160045260246000fd5b600082601f8301126114dc57600080fd5b813567ffffffffffffffff808211156114f7576114f76114b5565b604051601f8301601f19908116603f0116810190828211818310171561151f5761151f6114b5565b8160405283815286602085880101111561153857600080fd5b836020870160208301376000602085830101528094505050505092915050565b60008060006060848603121561156d57600080fd5b6115768461148a565b92506115846020850161149e565b9150604084013567ffffffffffffffff8111156115a057600080fd5b6115ac868287016114cb565b9150509250925092565b600080604083850312156115c957600080fd5b6115d28361148a565b91506115e06020840161149e565b90509250929050565b600080604083850312156115fc57600080fd5b823567ffffffffffffffff81111561161357600080fd5b61161f858286016114cb565b92505060208301356001600160f81b03198116811461163d57600080fd5b809150509250929050565b634e487b7160e01b600052601160045260246000fd5b6000821982111561167157611671611648565b500190565b602080825260149082015273496e76616c6964436f6e7472616374537461746560601b604082015260600190565b6000815180845260005b818110156116ca576020818501810151868301820152016116ae565b818111156116dc576000602083870101525b50601f01601f19169290920160200192915050565b60208152600061170460208301846116a4565b9392505050565b600181811c9082168061171f57607f821691505b60208210810361173f57634e487b7160e01b600052602260045260246000fd5b50919050565b601f82111561178b57600081815260208120601f850160051c8101602086101561176c5750805b601f850160051c820191505b81811015610e8b57828155600101611778565b505050565b815167ffffffffffffffff8111156117aa576117aa6114b5565b6117be816117b8845461170b565b84611745565b602080601f8311600181146117f357600084156117db5750858301515b600019600386901b1c1916600185901b178555610e8b565b600085815260208120601f198616915b8281101561182257888601518255948401946001909101908401611803565b50858210156118405787850151600019600388901b60f8161c191681555b5050505050600190811b01905550565b60408152600061186360408301856116a4565b905060ff60f81b831660208301529392505050565b6040810161188584611456565b9281526001600160a01b039190911660209091015290565b634e487b7160e01b600052603260045260246000fd5b6000600182016118c5576118c5611648565b506001019056fea2646970667358221220563227758e2d0e352633fe81fc219fe109f2d1166b0a3a89dd4d33116cb452f964736f6c634300080f0033a2646970667358221220f8820244376ea6b4490a085d376d5963d8f8f34c04683b2b2a8c6026dfadf35a64736f6c634300080f0033",
  "immutableReferences": {
    "321": [
      {
        "length": 32,
        "start": 463
      },
      {
        "length": 32,
        "start": 1851
      },
      {
        "length": 32,
        "start": 2749
      },
      {
        "length": 32,
        "start": 3052
      },
      {
        "length": 32,
        "start": 4491
      }
    ],
    "323": [
      {
        "length": 32,
        "start": 838
      },
      {
        "length": 32,
        "start": 1065
      },
      {
        "length": 32,
        "start": 1219
      },
      {
        "length": 32,
        "start": 1375
      },
      {
        "length": 32,
        "start": 1428
      },
      {
        "length": 32,
        "start": 1651
      },
      {
        "length": 32,
        "start": 2129
      },
      {
        "length": 32,
        "start": 2382
      },
      {
        "length": 32,
        "start": 2435
      },
      {
        "length": 32,
        "start": 2658
      },
      {
        "length": 32,
        "start": 3700
      },
      {
        "length": 32,
        "start": 3936
      },
      {
        "length": 32,
        "start": 4122
      },
      {
        "length": 32,
        "start": 4175
      },
      {
        "length": 32,
        "start": 4398
      },
      {
        "length": 32,
        "start": 4787
      },
      {
        "length": 32,
        "start": 4840
      },
      {
        "length": 32,
        "start": 5063
      },
      {
        "length": 32,
        "start": 5157
      },
      {
        "length": 32,
        "start": 5240
      },
      {
        "length": 32,
        "start": 5426
      },
      {
        "length": 32,
        "start": 5630
      }
    ],
    "325": [
      {
        "length": 32,
        "start": 542
      },
      {
        "length": 32,
        "start": 1116
      },
      {
        "length": 32,
        "start": 1300
      },
      {
        "length": 32,
        "start": 1483
      },
      {
        "length": 32,
        "start": 1543
      },
      {
        "length": 32,
        "start": 1596
      },
      {
        "length": 32,
        "start": 2210
      },
      {
        "length": 32,
        "start": 2490
      },
      {
        "length": 32,
        "start": 2550
      },
      {
        "length": 32,
        "start": 2603
      },
      {
        "length": 32,
        "start": 3789
      },
      {
        "length": 32,
        "start": 3899
      },
      {
        "length": 32,
        "start": 4230
      },
      {
        "length": 32,
        "start": 4290
      },
      {
        "length": 32,
        "start": 4343
      },
      {
        "length": 32,
        "start": 4895
      },
      {
        "length": 32,
        "start": 4955
      },
      {
        "length": 32,
        "start": 5008
      },
      {
        "length": 32,
        "start": 5194
      },
      {
        "length": 32,
        "start": 5296
      },
      {
        "length": 32,
        "start": 5528
      },
      {
        "length": 32,
        "start": 5726
      }
    ]
  },
  "source": "// SPDX-License-Identifier: GPL-V3\npragma solidity >=0.4.22 <0.9.0;\nimport './Lobby.sol';\nimport './ChessGame.sol';\nimport '@openzeppelin/contracts/utils/math/SafeMath.sol';\n\ncontract Challenge {\n  using SafeMath for uint256;\n  address public immutable lobby;\n  address payable public immutable player1;\n  address payable public immutable player2;\n  address public game;\n  bool public p1IsWhite;\n  uint public timePerMove;\n  uint public wagerAmount;\n  uint public p1Balance;\n  uint public p2Balance;\n  // The receiver address get's passed back and forth\n  // between the two players until one player accepts\n  // the challenge\n  address public sender;\n  // TODO Remove receiver.  We can use sender only.\n  address public receiver;\n\n  enum State { Pending, Accepted, Declined, Canceled }\n  State public state;\n  event ChallengeModified(address indexed player);\n\n  // FIXME Should check this is being created by the Lobby contract\n  constructor(\n    address payable p1,\n    address payable p2,\n    bool _p1IsWhite,\n    uint _wagerAmount,\n    uint _timePerMove\n  ) payable {\n    require(msg.value == _wagerAmount, 'InvalidDepositAmount');\n    // TODO Should verify this is actually the lobby somehow\n    lobby = msg.sender;\n    player1 = p1;\n    player2 = p2;\n    p1IsWhite = _p1IsWhite;\n    timePerMove = _timePerMove;\n    wagerAmount = _wagerAmount;\n    p1Balance = msg.value;\n    // Set the sender and receiver\n    sender = player1;\n    receiver = player2;\n    // Set contract state to pending\n    state = State.Pending;\n  }\n\n  modifier gameOnly() {\n    require(msg.sender == game, 'GameOnly');\n    _;\n  }\n\n  modifier playerOnly() {\n    require(msg.sender == player1 || msg.sender == player2, 'PlayerOnly');\n    _;\n  }\n\n  modifier senderOnly() {\n    require(msg.sender == sender, 'SenderOnly');\n    _;\n  }\n\n  modifier receiverOnly() {\n    require(msg.sender == receiver, 'ReceiverOnly');\n    _;\n  }\n\n  modifier isPending() {\n    require(state == State.Pending, 'InvalidContractState');\n    _;\n  }\n\n  modifier isAccepted() {\n    require(state == State.Accepted, 'InvalidContractState');\n    _;\n  }\n\n  modifier bothPlayersFunded() {\n    require(p1Balance >= wagerAmount\n         && p2Balance >= wagerAmount\n         , 'InsufficientPlayerFunds');\n    _;\n  }\n\n  modifier setSenderReceiver() {\n    if (msg.sender == player1) {\n      sender = player1;\n      receiver = player2;\n    } else if (msg.sender == player2) {\n      sender = player2;\n      receiver = player1;\n    }\n    _;\n  }\n\n  modifier updateFunds() {\n    if (msg.sender == player1) p1Balance += msg.value;\n    else if (msg.sender == player2) p2Balance += msg.value;\n    _;\n  }\n\n  function whitePlayer() public view returns (address payable) {\n    return p1IsWhite ? player1 : player2;\n  }\n\n  function blackPlayer() public view returns (address payable) {\n    return p1IsWhite ? player2 : player1;\n  }\n\n  function otherPlayer() private view returns (address) {\n    address white = whitePlayer();\n    address black = blackPlayer();\n    if (msg.sender == white) { return black; }\n    else if (msg.sender == black) { return white; }\n    else return address(0);\n  }\n\n  function playerBalance() private view returns (uint) {\n    if (msg.sender == player1) return p1Balance;\n    else if (msg.sender == player2) return p2Balance;\n    else return 0;\n  }\n\n  function refund() private {\n    player1.transfer(p1Balance);\n    p1Balance = 0;\n\n    player2.transfer(p2Balance);\n    p2Balance = 0;\n  }\n\n  function refundExcess() private {\n    uint p1Diff = p1Balance.sub(wagerAmount);\n    uint p2Diff = p2Balance.sub(wagerAmount);\n\n    if (p1Diff > 0) {\n      player1.transfer(p1Diff);\n      p1Balance = wagerAmount;\n    }\n\n    if (p2Diff > 0) {\n      player2.transfer(p2Diff);\n      p2Balance = wagerAmount;\n    }\n  }\n\n  function modify(bool _p1IsWhite,\n                  uint _wagerAmount,\n                  uint _timePerMove)\n  external payable\n  isPending playerOnly updateFunds setSenderReceiver {\n    require(playerBalance() >= _wagerAmount, 'InsufficientPlayerFunds');\n    p1IsWhite = _p1IsWhite;\n    wagerAmount = _wagerAmount;\n    timePerMove = _timePerMove;\n    Lobby(lobby).updateChallenge(sender, receiver, state);\n  }\n\n  function cancel() external isPending senderOnly setSenderReceiver {\n    state = State.Canceled;\n    Lobby(lobby).updateChallenge(sender, receiver, state);\n    refund();\n  }\n\n  function decline() external isPending receiverOnly setSenderReceiver {\n    state = State.Declined;\n    Lobby(lobby).updateChallenge(sender, receiver, state);\n    refund();\n  }\n\n  function accept() external payable\n  isPending receiverOnly updateFunds bothPlayersFunded setSenderReceiver {\n    state = State.Accepted;\n    Lobby(lobby).updateChallenge(msg.sender, receiver, state);\n    address white = whitePlayer();\n    address black = blackPlayer();\n    ChessGame _game = new ChessGame(white, black, timePerMove);\n    game = address(_game);\n    Lobby(lobby).startGame(game, white, black);\n    refundExcess();\n  }\n\n  function disburse(ChessGame.GameOutcome _outcome, address _winner) external\n  isAccepted gameOnly {\n    if (_outcome == ChessGame.GameOutcome.WhiteWon) {\n      require(_winner == whitePlayer(), 'InvalidWinningAddress');\n      whitePlayer().transfer(p1Balance+p2Balance); \n    } else if (_outcome == ChessGame.GameOutcome.BlackWon) {\n      require(_winner == blackPlayer(), 'InvalidWinningAddress');\n      blackPlayer().transfer(p1Balance+p2Balance); \n    } else if (_outcome == ChessGame.GameOutcome.Draw) {\n      player1.transfer(p1Balance);\n      player2.transfer(p2Balance);\n    }\n    p1Balance = 0;\n    p2Balance = 0;\n  }\n}\n",
  "sourcePath": "/home/jjd/Sources/bcl/bcl/contracts/Challenge.sol",
  "compiler": {
    "name": "solc",
    "version": "0.8.15+commit.e14f2714.Emscripten.clang"
  },
  "schemaVersion": "3.4.7",
  "updatedAt": "2022-08-02T07:23:24.359Z",
  "devdoc": {
    "kind": "dev",
    "methods": {},
    "version": 1
  },
  "userdoc": {
    "kind": "user",
    "methods": {},
    "version": 1
  }
}