{
  "contractName": "ChessGame",
  "abi": [
    {
      "inputs": [
        {
          "internalType": "address",
          "name": "white",
          "type": "address"
        },
        {
          "internalType": "address",
          "name": "black",
          "type": "address"
        },
        {
          "internalType": "uint256",
          "name": "movetime",
          "type": "uint256"
        }
      ],
      "stateMutability": "nonpayable",
      "type": "constructor"
    },
    {
      "anonymous": false,
      "inputs": [
        {
          "indexed": true,
          "internalType": "address",
          "name": "arbiter",
          "type": "address"
        },
        {
          "indexed": false,
          "internalType": "string",
          "name": "comment",
          "type": "string"
        }
      ],
      "name": "ArbiterAction",
      "type": "event"
    },
    {
      "anonymous": false,
      "inputs": [
        {
          "indexed": true,
          "internalType": "address",
          "name": "player",
          "type": "address"
        },
        {
          "indexed": false,
          "internalType": "string",
          "name": "san",
          "type": "string"
        },
        {
          "indexed": false,
          "internalType": "bytes1",
          "name": "flags",
          "type": "bytes1"
        }
      ],
      "name": "MoveSAN",
      "type": "event"
    },
    {
      "inputs": [],
      "name": "arbiter",
      "outputs": [
        {
          "internalType": "address",
          "name": "",
          "type": "address"
        }
      ],
      "stateMutability": "view",
      "type": "function"
    },
    {
      "inputs": [],
      "name": "blackPlayer",
      "outputs": [
        {
          "internalType": "address",
          "name": "",
          "type": "address"
        }
      ],
      "stateMutability": "view",
      "type": "function"
    },
    {
      "inputs": [],
      "name": "challenge",
      "outputs": [
        {
          "internalType": "address",
          "name": "",
          "type": "address"
        }
      ],
      "stateMutability": "view",
      "type": "function"
    },
    {
      "inputs": [],
      "name": "isWhiteMove",
      "outputs": [
        {
          "internalType": "bool",
          "name": "",
          "type": "bool"
        }
      ],
      "stateMutability": "view",
      "type": "function"
    },
    {
      "inputs": [],
      "name": "lobby",
      "outputs": [
        {
          "internalType": "address",
          "name": "",
          "type": "address"
        }
      ],
      "stateMutability": "view",
      "type": "function"
    },
    {
      "inputs": [],
      "name": "outcome",
      "outputs": [
        {
          "internalType": "enum ChessGame.GameOutcome",
          "name": "",
          "type": "uint8"
        }
      ],
      "stateMutability": "view",
      "type": "function"
    },
    {
      "inputs": [],
      "name": "state",
      "outputs": [
        {
          "internalType": "enum ChessGame.State",
          "name": "",
          "type": "uint8"
        }
      ],
      "stateMutability": "view",
      "type": "function"
    },
    {
      "inputs": [],
      "name": "timeOfLastMove",
      "outputs": [
        {
          "internalType": "uint256",
          "name": "",
          "type": "uint256"
        }
      ],
      "stateMutability": "view",
      "type": "function"
    },
    {
      "inputs": [],
      "name": "timePerMove",
      "outputs": [
        {
          "internalType": "uint256",
          "name": "",
          "type": "uint256"
        }
      ],
      "stateMutability": "view",
      "type": "function"
    },
    {
      "inputs": [],
      "name": "whitePlayer",
      "outputs": [
        {
          "internalType": "address",
          "name": "",
          "type": "address"
        }
      ],
      "stateMutability": "view",
      "type": "function"
    },
    {
      "inputs": [],
      "name": "timeExpired",
      "outputs": [
        {
          "internalType": "bool",
          "name": "",
          "type": "bool"
        }
      ],
      "stateMutability": "view",
      "type": "function"
    },
    {
      "inputs": [],
      "name": "winner",
      "outputs": [
        {
          "internalType": "address",
          "name": "",
          "type": "address"
        }
      ],
      "stateMutability": "view",
      "type": "function"
    },
    {
      "inputs": [],
      "name": "loser",
      "outputs": [
        {
          "internalType": "address",
          "name": "",
          "type": "address"
        }
      ],
      "stateMutability": "view",
      "type": "function"
    },
    {
      "inputs": [
        {
          "internalType": "string",
          "name": "san",
          "type": "string"
        },
        {
          "internalType": "bytes1",
          "name": "flags",
          "type": "bytes1"
        }
      ],
      "name": "move",
      "outputs": [],
      "stateMutability": "nonpayable",
      "type": "function"
    },
    {
      "inputs": [],
      "name": "resign",
      "outputs": [],
      "stateMutability": "nonpayable",
      "type": "function"
    },
    {
      "inputs": [],
      "name": "dispute",
      "outputs": [],
      "stateMutability": "nonpayable",
      "type": "function"
    },
    {
      "inputs": [],
      "name": "claim",
      "outputs": [],
      "stateMutability": "nonpayable",
      "type": "function"
    },
    {
      "inputs": [
        {
          "internalType": "enum ChessGame.GameOutcome",
          "name": "_outcome",
          "type": "uint8"
        },
        {
          "internalType": "address",
          "name": "_winner",
          "type": "address"
        },
        {
          "internalType": "string",
          "name": "comment",
          "type": "string"
        }
      ],
      "name": "resolve",
      "outputs": [],
      "stateMutability": "nonpayable",
      "type": "function"
    },
    {
      "inputs": [
        {
          "internalType": "enum ChessGame.GameOutcome",
          "name": "_outcome",
          "type": "uint8"
        },
        {
          "internalType": "address",
          "name": "_winner",
          "type": "address"
        }
      ],
      "name": "resolve",
      "outputs": [],
      "stateMutability": "nonpayable",
      "type": "function"
    }
  ],
  "bytecode": "0x6101406040526004805464ffffff000019166404020100001790553480156200002757600080fd5b5060405162001c1138038062001c118339810160408190526200004a9162000180565b3360a0819052604080516354faf46b60e01b815290516354faf46b916004808201926020929091908290030181865afa1580156200008c573d6000803e3d6000fd5b505050506040513d601f19601f82011682018060405250810190620000b29190620001c1565b6001600160a01b0316608081905260408051637f12f00560e11b8152905163fe25e00a916004808201926020929091908290030181865afa158015620000fc573d6000803e3d6000fd5b505050506040513d601f19601f82011682018060405250810190620001229190620001c1565b6001600160a01b0390811660c05292831660e052911661010052610120526001805460ff191681179055426000556004805460ff60301b19169055620001e6565b80516001600160a01b03811681146200017b57600080fd5b919050565b6000806000606084860312156200019657600080fd5b620001a18462000163565b9250620001b16020850162000163565b9150604084015190509250925092565b600060208284031215620001d457600080fd5b620001df8262000163565b9392505050565b60805160a05160c05160e05161010051610120516119026200030f6000396000818161023f01526103050152600081816102b801528181610490015281816105d3015281816106c0015281816108db0152818161097a01528181610a5b01528181610ad501528181610cd701528181610efa01528181610fe0015281816112a401526112d00152600081816101f7015281816103ff015281816105a201528181610684015281816108a90152818161094001528181610a1101528181610b0601528181610bb601528181610f4401528181610fae0152818161127b01526112f90152600081816102df015281816103890152610738015260008181610266015261113201526000818161019d01528181610df90152818161105601526111b901526119026000f3fe608060405234801561001057600080fd5b50600436106101215760003560e01c8063a7907797116100ad578063e701ba8311610071578063e701ba8314610290578063e82898b3146102a3578063f240f7c3146102ab578063fc168747146102b3578063fe25e00a146102da57600080fd5b8063a790779714610219578063c19d93fb14610226578063c31237ce1461023a578063d2ef739814610261578063dfbf53ae1461028857600080fd5b80634e71d92d116100f45780634e71d92d1461019057806354faf46b1461019857806366671f7c146101d757806369652fcf146101ea5780638bf0beee146101f257600080fd5b80631c829ded1461012657806327793f87146101435780632ec36e7714610164578063480a2f9814610179575b600080fd5b61012e610301565b60405190151581526020015b60405180910390f35b60045461015790600160281b900460ff1681565b60405161013a9190611477565b610177610172366004611558565b610338565b005b61018260005481565b60405190815260200161013a565b610177610550565b6101bf7f000000000000000000000000000000000000000000000000000000000000000081565b6040516001600160a01b03909116815260200161013a565b6101776101e53660046115b6565b6106f0565b610177610861565b6101bf7f000000000000000000000000000000000000000000000000000000000000000081565b60015461012e9060ff1681565b60045461015790600160301b900460ff1681565b6101827f000000000000000000000000000000000000000000000000000000000000000081565b6101bf7f000000000000000000000000000000000000000000000000000000000000000081565b6101bf6109aa565b61017761029e3660046115e9565b610a83565b6101bf610e93565b610177610f66565b6101bf7f000000000000000000000000000000000000000000000000000000000000000081565b6101bf7f000000000000000000000000000000000000000000000000000000000000000081565b60007f0000000000000000000000000000000000000000000000000000000000000000600054610331919061165e565b4211905090565b6003600454600160301b900460ff16600381111561035857610358611440565b1461037e5760405162461bcd60e51b815260040161037590611676565b60405180910390fd5b336001600160a01b037f000000000000000000000000000000000000000000000000000000000000000016146103e45760405162461bcd60e51b815260206004820152600b60248201526a417262697465724f6e6c7960a81b6044820152606401610375565b60018360038111156103f8576103f8611440565b03610475577f00000000000000000000000000000000000000000000000000000000000000006001600160a01b0316826001600160a01b0316146104705760405162461bcd60e51b815260206004820152600f60248201526e082c8c8e4cae6e69ad2e6dac2e8c6d608b1b6044820152606401610375565b610501565b600283600381111561048957610489611440565b03610501577f00000000000000000000000000000000000000000000000000000000000000006001600160a01b0316826001600160a01b0316146105015760405162461bcd60e51b815260206004820152600f60248201526e082c8c8e4cae6e69ad2e6dac2e8c6d608b1b6044820152606401610375565b61050a836110ee565b336001600160a01b03167fc968b9a04fc8bac8aca9e3c6ef2cc70ebe7f94ffbfdce2e207b85b155abade1b8260405161054391906116f1565b60405180910390a2505050565b6000600454600160301b900460ff16600381111561057057610570611440565b1461058d5760405162461bcd60e51b815260040161037590611676565b60015460ff166105c857336001600160a01b037f000000000000000000000000000000000000000000000000000000000000000016146105f5565b336001600160a01b037f000000000000000000000000000000000000000000000000000000000000000016145b6106335760405162461bcd60e51b815260206004820152600f60248201526e4f74686572506c617965724f6e6c7960881b6044820152606401610375565b61063b610301565b61067a5760405162461bcd60e51b815260206004820152601060248201526f54696d65725374696c6c41637469766560801b6044820152606401610375565b6001600160a01b037f00000000000000000000000000000000000000000000000000000000000000001633036106b6576106b460016110ee565b565b6001600160a01b037f00000000000000000000000000000000000000000000000000000000000000001633036106b4576106b460026110ee565b6003600454600160301b900460ff16600381111561071057610710611440565b1461072d5760405162461bcd60e51b815260040161037590611676565b336001600160a01b037f000000000000000000000000000000000000000000000000000000000000000016146107935760405162461bcd60e51b815260206004820152600b60248201526a417262697465724f6e6c7960a81b6044820152606401610375565b60018260038111156107a7576107a7611440565b036107dc576107d88282604051806040016040528060098152602001682bb434ba32903bb7b760b91b815250610338565b5050565b60028260038111156107f0576107f0611440565b03610821576107d8828260405180604001604052806009815260200168213630b1b5903bb7b760b91b815250610338565b600382600381111561083557610835611440565b036107d8576107d88282604051806040016040528060048152602001634472617760e01b815250610338565b6000600454600160301b900460ff16600381111561088157610881611440565b1461089e5760405162461bcd60e51b815260040161037590611676565b336001600160a01b037f00000000000000000000000000000000000000000000000000000000000000001614806108fd5750336001600160a01b037f000000000000000000000000000000000000000000000000000000000000000016145b6109365760405162461bcd60e51b815260206004820152600a602482015269506c617965724f6e6c7960b01b6044820152606401610375565b6001600160a01b037f0000000000000000000000000000000000000000000000000000000000000000163303610970576106b460026110ee565b6001600160a01b037f00000000000000000000000000000000000000000000000000000000000000001633036106b4576106b460016110ee565b60006001600454600160301b900460ff1660038111156109cc576109cc611440565b146109e95760405162461bcd60e51b815260040161037590611676565b6001600454600160281b900460ff166003811115610a0957610a09611440565b03610a3357507f000000000000000000000000000000000000000000000000000000000000000090565b6002600454600160281b900460ff166003811115610a5357610a53611440565b03610a7d57507f000000000000000000000000000000000000000000000000000000000000000090565b50600090565b6000600454600160301b900460ff166003811115610aa357610aa3611440565b14610ac05760405162461bcd60e51b815260040161037590611676565b60015460ff16610afb57336001600160a01b037f00000000000000000000000000000000000000000000000000000000000000001614610b28565b336001600160a01b037f000000000000000000000000000000000000000000000000000000000000000016145b610b685760405162461bcd60e51b815260206004820152601160248201527043757272656e74506c617965724f6e6c7960781b6044820152606401610375565b610b70610301565b15610bac5760405162461bcd60e51b815260206004820152600c60248201526b151a5b595c915e1c1a5c995960a21b6044820152606401610375565b6001600160a01b037f0000000000000000000000000000000000000000000000000000000000000000163303610ccd57610c708260028054610bed9061170b565b80601f0160208091040260200160405190810160405280929190818152602001828054610c199061170b565b8015610c665780601f10610c3b57610100808354040283529160200191610c66565b820191906000526020600020905b815481529060010190602001808311610c4957829003601f168201915b5050505050611259565b15610cab5760405162461bcd60e51b815260206004820152600b60248201526a496c6c6567616c4d6f766560a81b6044820152606401610375565b6002610cb78382611790565b506004805460ff191660f883901c179055610d6c565b6001600160a01b037f0000000000000000000000000000000000000000000000000000000000000000163303610d6c57610d0e8260038054610bed9061170b565b15610d495760405162461bcd60e51b815260206004820152600b60248201526a496c6c6567616c4d6f766560a81b6044820152606401610375565b6003610d558382611790565b506004805461ff00191661010060f884901c021790555b6004546001600160f81b0319640100000000820460f890811b83821b16610100909304901b919091161615610da5576107d860036110ee565b6001805460ff19811660ff909116151790554260005560405133907f5c835bd7786b7a4f279a14007e442f06a616bd63347831934dfe138bb2de0ac690610def9085908590611850565b60405180910390a27f00000000000000000000000000000000000000000000000000000000000000006001600160a01b031663e44eaa3833610e2f61126f565b6040516001600160e01b031960e085901b1681526001600160a01b03928316600482015291166024820152604401600060405180830381600087803b158015610e7757600080fd5b505af1158015610e8b573d6000803e3d6000fd5b505050505050565b60006001600454600160301b900460ff166003811115610eb557610eb5611440565b14610ed25760405162461bcd60e51b815260040161037590611676565b6001600454600160281b900460ff166003811115610ef257610ef2611440565b03610f1c57507f000000000000000000000000000000000000000000000000000000000000000090565b6002600454600160281b900460ff166003811115610f3c57610f3c611440565b03610a7d57507f000000000000000000000000000000000000000000000000000000000000000090565b6000600454600160301b900460ff166003811115610f8657610f86611440565b14610fa35760405162461bcd60e51b815260040161037590611676565b336001600160a01b037f00000000000000000000000000000000000000000000000000000000000000001614806110025750336001600160a01b037f000000000000000000000000000000000000000000000000000000000000000016145b61103b5760405162461bcd60e51b815260206004820152600a602482015269506c617965724f6e6c7960b01b6044820152606401610375565b6004805466ff000000000000191666030000000000001790557f00000000000000000000000000000000000000000000000000000000000000006001600160a01b0316637010784e3361108c61126f565b6040516001600160e01b031960e085901b1681526001600160a01b03928316600482015291166024820152604401600060405180830381600087803b1580156110d457600080fd5b505af11580156110e8573d6000803e3d6000fd5b50505050565b6004805482919065ff00000000001916600160281b83600381111561111557611115611440565b02179055506004805466ff0000000000001916600160301b1790557f00000000000000000000000000000000000000000000000000000000000000006001600160a01b0316634058ef05826111686109aa565b6040518363ffffffff1660e01b8152600401611185929190611878565b600060405180830381600087803b15801561119f57600080fd5b505af11580156111b3573d6000803e3d6000fd5b505050507f00000000000000000000000000000000000000000000000000000000000000006001600160a01b03166305cc3e666111ee6109aa565b6111f6610e93565b6040516001600160e01b031960e085901b1681526001600160a01b03928316600482015291166024820152604401600060405180830381600087803b15801561123e57600080fd5b505af1158015611252573d6000803e3d6000fd5b5050505050565b6000611265838361131b565b1590505b92915050565b60006001600160a01b037f00000000000000000000000000000000000000000000000000000000000000001633036112c657507f000000000000000000000000000000000000000000000000000000000000000090565b6001600160a01b037f0000000000000000000000000000000000000000000000000000000000000000163303610a7d57507f000000000000000000000000000000000000000000000000000000000000000090565b815181516000918491849190811115611332575080515b60005b818110156114065782818151811061134f5761134f61189d565b602001015160f81c60f81b6001600160f81b0319168482815181106113765761137661189d565b01602001516001600160f81b031916101561139957600019945050505050611269565b8281815181106113ab576113ab61189d565b602001015160f81c60f81b6001600160f81b0319168482815181106113d2576113d261189d565b01602001516001600160f81b03191611156113f4576001945050505050611269565b806113fe816118b3565b915050611335565b5081518351101561141e576000199350505050611269565b8151835111156114345760019350505050611269565b60009350505050611269565b634e487b7160e01b600052602160045260246000fd5b6004811061147457634e487b7160e01b600052602160045260246000fd5b50565b6020810161148483611456565b91905290565b80356004811061149957600080fd5b919050565b80356001600160a01b038116811461149957600080fd5b634e487b7160e01b600052604160045260246000fd5b600082601f8301126114dc57600080fd5b813567ffffffffffffffff808211156114f7576114f76114b5565b604051601f8301601f19908116603f0116810190828211818310171561151f5761151f6114b5565b8160405283815286602085880101111561153857600080fd5b836020870160208301376000602085830101528094505050505092915050565b60008060006060848603121561156d57600080fd5b6115768461148a565b92506115846020850161149e565b9150604084013567ffffffffffffffff8111156115a057600080fd5b6115ac868287016114cb565b9150509250925092565b600080604083850312156115c957600080fd5b6115d28361148a565b91506115e06020840161149e565b90509250929050565b600080604083850312156115fc57600080fd5b823567ffffffffffffffff81111561161357600080fd5b61161f858286016114cb565b92505060208301356001600160f81b03198116811461163d57600080fd5b809150509250929050565b634e487b7160e01b600052601160045260246000fd5b6000821982111561167157611671611648565b500190565b602080825260149082015273496e76616c6964436f6e7472616374537461746560601b604082015260600190565b6000815180845260005b818110156116ca576020818501810151868301820152016116ae565b818111156116dc576000602083870101525b50601f01601f19169290920160200192915050565b60208152600061170460208301846116a4565b9392505050565b600181811c9082168061171f57607f821691505b60208210810361173f57634e487b7160e01b600052602260045260246000fd5b50919050565b601f82111561178b57600081815260208120601f850160051c8101602086101561176c5750805b601f850160051c820191505b81811015610e8b57828155600101611778565b505050565b815167ffffffffffffffff8111156117aa576117aa6114b5565b6117be816117b8845461170b565b84611745565b602080601f8311600181146117f357600084156117db5750858301515b600019600386901b1c1916600185901b178555610e8b565b600085815260208120601f198616915b8281101561182257888601518255948401946001909101908401611803565b50858210156118405787850151600019600388901b60f8161c191681555b5050505050600190811b01905550565b60408152600061186360408301856116a4565b905060ff60f81b831660208301529392505050565b6040810161188584611456565b9281526001600160a01b039190911660209091015290565b634e487b7160e01b600052603260045260246000fd5b6000600182016118c5576118c5611648565b506001019056fea2646970667358221220563227758e2d0e352633fe81fc219fe109f2d1166b0a3a89dd4d33116cb452f964736f6c634300080f0033",
  "immutableReferences": {
    "983": [
      {
        "length": 32,
        "start": 413
      },
      {
        "length": 32,
        "start": 3577
      },
      {
        "length": 32,
        "start": 4182
      },
      {
        "length": 32,
        "start": 4537
      }
    ],
    "985": [
      {
        "length": 32,
        "start": 614
      },
      {
        "length": 32,
        "start": 4402
      }
    ],
    "987": [
      {
        "length": 32,
        "start": 735
      },
      {
        "length": 32,
        "start": 905
      },
      {
        "length": 32,
        "start": 1848
      }
    ],
    "989": [
      {
        "length": 32,
        "start": 503
      },
      {
        "length": 32,
        "start": 1023
      },
      {
        "length": 32,
        "start": 1442
      },
      {
        "length": 32,
        "start": 1668
      },
      {
        "length": 32,
        "start": 2217
      },
      {
        "length": 32,
        "start": 2368
      },
      {
        "length": 32,
        "start": 2577
      },
      {
        "length": 32,
        "start": 2822
      },
      {
        "length": 32,
        "start": 2998
      },
      {
        "length": 32,
        "start": 3908
      },
      {
        "length": 32,
        "start": 4014
      },
      {
        "length": 32,
        "start": 4731
      },
      {
        "length": 32,
        "start": 4857
      }
    ],
    "991": [
      {
        "length": 32,
        "start": 696
      },
      {
        "length": 32,
        "start": 1168
      },
      {
        "length": 32,
        "start": 1491
      },
      {
        "length": 32,
        "start": 1728
      },
      {
        "length": 32,
        "start": 2267
      },
      {
        "length": 32,
        "start": 2426
      },
      {
        "length": 32,
        "start": 2651
      },
      {
        "length": 32,
        "start": 2773
      },
      {
        "length": 32,
        "start": 3287
      },
      {
        "length": 32,
        "start": 3834
      },
      {
        "length": 32,
        "start": 4064
      },
      {
        "length": 32,
        "start": 4772
      },
      {
        "length": 32,
        "start": 4816
      }
    ],
    "993": [
      {
        "length": 32,
        "start": 575
      },
      {
        "length": 32,
        "start": 773
      }
    ]
  },
  "source": "// SPDX-License-Identifier: GPL-V3\npragma solidity >=0.4.22 <0.9.0;\nimport './Lobby.sol';\nimport './Challenge.sol';\nimport './lib/stringUtils.sol';\n\ncontract ChessGame {\n  address public immutable lobby;\n  address public immutable challenge;\n  address public immutable arbiter;\n  address public immutable whitePlayer;\n  address public immutable blackPlayer;\n  uint public immutable timePerMove;      // Seconds per move\n  uint public timeOfLastMove;             // Seconds from the last move\n  bool public isWhiteMove;\n  // A common error is the user send the tx twice before the\n  // block is mined.  This is an easy way to prevent it.\n  string private prevWhiteMove;\n  string private prevBlackMove;\n  // Moveflags\n  bytes1 private whiteFlags;\n  bytes1 private blackFlags;\n  bytes1 private checkMask = 0x01;\n  bytes1 private checkmateMask = 0x02;\n  bytes1 private stalemateMask = 0x04;\n\n  enum GameOutcome { Undecided, WhiteWon, BlackWon, Draw }\n  GameOutcome public outcome;\n\n  enum State { Started, Finished, Paused, Review }\n  State public state;\n\n  event MoveSAN(address indexed player, string san, bytes1 flags);\n  event ArbiterAction(address indexed arbiter, string comment);\n\n  modifier currentPlayer() {\n    require(isWhiteMove ? (msg.sender == whitePlayer)\n                        : (msg.sender == blackPlayer)\n          , 'CurrentPlayerOnly');\n    _;\n  }\n\n  modifier isOtherPlayer() {\n    require(isWhiteMove ? (msg.sender == blackPlayer)\n                        : (msg.sender == whitePlayer)\n          , 'OtherPlayerOnly');\n    _;\n  }\n\n  modifier playerOnly() {\n    require(msg.sender == whitePlayer || msg.sender == blackPlayer, 'PlayerOnly');\n    _;\n  }\n\n  modifier arbiterOnly() {\n    require(msg.sender == arbiter, 'ArbiterOnly');\n    _;\n  }\n\n  modifier inProgress() {\n    require(state == State.Started, 'InvalidContractState');\n    _;\n  }\n\n  modifier inReview() {\n    require(state == State.Review, 'InvalidContractState');\n    _;\n  }\n\n  modifier isFinished() {\n    require(state == State.Finished, 'InvalidContractState');\n    _;\n  }\n\n  function timeExpired() public view returns (bool) {\n    return block.timestamp > timeOfLastMove+timePerMove;\n  }\n\n  modifier timerExpired() {\n    require(timeExpired(), 'TimerStillActive');\n    _;\n  }\n\n  modifier timerActive() {\n    require(!timeExpired(), 'TimerExpired');\n    _;\n  }\n\n  // FIXME Should check this is being created by the Lobby contract\n  constructor(address white, address black, uint movetime) {\n    challenge = msg.sender;\n    lobby = Challenge(challenge).lobby();\n    arbiter = Lobby(lobby).arbiter();\n    whitePlayer = white;\n    blackPlayer = black;\n    timePerMove = movetime;\n    isWhiteMove = true;\n    timeOfLastMove = block.timestamp;\n    state = State.Started;\n  }\n\n  function isWhitePlayer() private view returns (bool) {\n    return (msg.sender == whitePlayer);\n  }\n\n  function otherPlayer() private view returns (address) {\n    if (msg.sender == whitePlayer) return blackPlayer;\n    else if (msg.sender == blackPlayer) return whitePlayer;\n    else return address(0);\n  }\n\n  function winner() public view isFinished returns (address) {\n    if (outcome == GameOutcome.WhiteWon) return whitePlayer;\n    else if (outcome == GameOutcome.BlackWon) return blackPlayer;\n    else return address(0);\n  }\n\n  function loser() public view isFinished returns (address) {\n    if (outcome == GameOutcome.WhiteWon) return blackPlayer;\n    else if (outcome == GameOutcome.BlackWon) return whitePlayer;\n    else return address(0);\n  }\n\n  function finish(GameOutcome _outcome) private {\n    outcome = _outcome;\n    state = State.Finished;\n    Challenge(challenge).disburse(_outcome, winner());\n    Lobby(lobby).finishGame(winner(), loser());\n  }\n\n  /* Probably going to be easier this way once you implement bitboards\n  //function move(bytes1 piece, bytes1 from, bytes1 to) external inProgress currentPlayer {\n  function move(bytes1 from, bytes1 to) external inProgress currentPlayer {\n    isWhiteMove = !isWhiteMove;\n    emit MovedPiece(msg.sender, from, to);\n    // TODO Calculate the SAN\n  }\n  */\n\n  // TODO Remove the previous move checks in bitboard implementation\n  function move(string memory san, bytes1 flags) public\n  inProgress currentPlayer timerActive {\n    if (msg.sender == whitePlayer) {\n      require(!StringUtils.equal(san, prevWhiteMove), 'IllegalMove');\n      prevWhiteMove = san;\n      whiteFlags = flags;\n    }\n    else if (msg.sender == blackPlayer) {\n      require(!StringUtils.equal(san, prevBlackMove), 'IllegalMove');\n      prevBlackMove = san;\n      blackFlags = flags;\n    }\n\n    if ((stalemateMask & whiteFlags & blackFlags) > 0) {      // stalemate\n      finish(GameOutcome.Draw);\n      return;\n    }\n\n    isWhiteMove = !isWhiteMove;\n    timeOfLastMove = block.timestamp;\n    emit MoveSAN(msg.sender, san, flags);\n    Lobby(lobby).broadcastMove(msg.sender, otherPlayer());\n  }\n\n  function resign() external inProgress playerOnly {\n    if (msg.sender == whitePlayer) finish(GameOutcome.BlackWon);\n    else if (msg.sender == blackPlayer) finish(GameOutcome.WhiteWon);\n  }\n\n  function dispute() external inProgress playerOnly {\n    state = State.Review;\n    Lobby(lobby).disputeGame(msg.sender, otherPlayer());\n  }\n\n  function claim() external inProgress isOtherPlayer timerExpired {\n    if (msg.sender == whitePlayer) finish(GameOutcome.WhiteWon);\n    else if (msg.sender == blackPlayer) finish(GameOutcome.BlackWon);\n  }\n\n  function resolve(GameOutcome _outcome, address _winner, string memory comment)\n  public inReview arbiterOnly {\n    if (_outcome == GameOutcome.WhiteWon) {\n      require(_winner == whitePlayer, 'AddressMismatch');\n    } else if (_outcome == GameOutcome.BlackWon) {\n      require(_winner == blackPlayer, 'AddressMismatch');\n    }\n    finish(_outcome);\n    emit ArbiterAction(msg.sender, comment);\n  }\n\n  function resolve(GameOutcome _outcome, address _winner)\n  external inReview arbiterOnly {\n    if (_outcome == GameOutcome.WhiteWon) resolve(_outcome, _winner, 'White won');\n    else if (_outcome == GameOutcome.BlackWon) resolve(_outcome, _winner, 'Black won');\n    else if (_outcome == GameOutcome.Draw) resolve(_outcome, _winner, 'Draw');\n  }\n}\n",
  "sourcePath": "/home/jjd/Sources/bcl/bcl/contracts/ChessGame.sol",
  "compiler": {
    "name": "solc",
    "version": "0.8.15+commit.e14f2714.Emscripten.clang"
  },
  "schemaVersion": "3.4.7",
  "updatedAt": "2022-08-02T07:23:24.366Z",
  "devdoc": {
    "kind": "dev",
    "methods": {},
    "version": 1
  },
  "userdoc": {
    "kind": "user",
    "methods": {},
    "version": 1
  }
}